:03000000020B32BE
:0C0B3200787FE4F6D8FD758173020B7922
:030D1C00011C00B7
:100FF80012115DE51C146013146024240270F412AD
:101008001109E51C70ED120F2280F7120E387F646B
:101018007E001210B9E51CB401D912113680F612FF
:0C1028001109E51CB402CC120F6B80F61D
:10109600E4F50CC29600C29700FEEF30E004D2954C
:1010A6008002C295D29600C29600EFC313FF0EBE11
:0210B60008E848
:0110B8002215
:100A9600EFB410004003020B31900AA6F828287321
:100AA600020AD6020ADA020ADE020AE2020AE602AC
:100AB6000AEA020AEE020AF2020AF6020AFC020B2D
:100AC60002020B08020B0E020B17020B20020B2967
:100AD600C290801EC2908020C2908022C290802444
:100AE600C2908026C290802BC2908030C290803502
:100AF600D290C2918016D290C2918019D290C291A2
:100B0600801CD290C291801FD290D291C292C29381
:100B160022D290D291C292D29322D290D291D292E4
:0C0B2600C29322D290D291D292D293229C
:09115D00D288D2A8D2AFD2B2228E
:1010B900E4FDFCC3ED9FEC9E5015E4FBFA0BBB006D
:0F10C900010AEB647B4A70F50DBD00010C80E459
:0110D80022F5
:0B000E00EF1FAC0670011E4C70F622C4
:10112000EF1FAA0670011E4A600BE4FDEDC3940D8B
:0511300050EE0D80F7F8
:011135002297
:10113600E521B40103120D83E547B401031206D776
:06114600120BBE020C3E7C
:100D1F00014403014C00022200001F240010200098
:100D2F0000000000000000000000000000000000B4
:0D0D3F000000000000000000000000C102E4
:100E3800754A01752102E4F548F549F546F547E597
:100E48004CB40109E4F524752510752620E4F54C09
:100E5800F522F52375440374242544F8E4F6742533
:100E68002544F8E4F6D288D2A9D2AB758911758CDD
:100E78003C758AAF758DD8758BEFF543C28CD28ED1
:010E88002247
:10106F00758DD8758BEF0549E54970020548FFAEC0
:10107F0048120ECBC3E549946DE5486480948840CF
:07108F0005E4F548F54922D4
:100ED600AE22AF23EF24AFFFEE343CFEE433FDE455
:100EE60033FCE4FB7A01F9F8120FB48F8CAE22AF13
:100EF60023EF24AFFFEE343CFEE433FDE433FCE4A1
:100F0600FB7A01F9F8120FB4AF038F8A0546E5465E
:0C0F1600C3940A4006E4F546754701222A
:100BBE00E51424F8603724B6602824F8600F244228
:100BCE007035E5436401602C7543038027E521B43D
:100BDE000205752101D28CE54364026003E4F543FE
:100BEE008012E543640360037543018007E54360AB
:100BFE0003754302E4F51420B413E521B402057520
:100C0E002101D28CE54364026003E4F54320B5096B
:100C1E00E5436403600375430120B307E5436003B6
:100C2E0075430220B609E543640160037543032250
:1006D700E54A6401702BFEFFE54424FFFDE434FF87
:1006E700FCC3EF9DEC6480F8EE648098501374258A
:1006F7002FF8E6FD74242FF8A6050FBF00010E8022
:10070700D7E54314602314603214604A24037059F8
:1007170074232544F8E6C4540FC3940F5048742338
:100727002544F8741026F6804074232544F8E654CF
:100737000FC3940F5003068030802B74232544F891
:10074700E6C4540FD39400400B74232544F874F087
:1007570026F68015801074232544F8E6540FD394A9
:10076700004003168003754C01E4F547E54C7033F0
:10077700FEFFE54424FFFDE434FFFCC3EF9DEC647A
:1007870080F8EE648098501B74242FF8E6FD7423DC
:100797002544F8E6B50505754C0180070FBF000134
:1007A7000E80CFE54CB40104751C02227424254445
:1007B700F8E6FD74232544F8E6B50517E544C39428
:1007C7001E50050544E4F54A75210174242544F8B3
:0607D70076FF22754A01C5
:0107DD0022F9
:100D8300E4F521754501120E897C017D0012044BA7
:100D93008D4BE54BC4540F75F00AA4FFE54B540F7C
:100DA3002FF54BE4FFFEC3EF95447480F86E985023
:100DB3001474242FF8E6B54B05E4F54580070FBFFF
:100DC30000010E80E1E54560BA74242544F8A64B82
:0C0DD30074DC2523F52374053522F5227D
:010DDF0022F1
:100C3E0075097F750AFF3002FDE4F508E508D395C6
:100C4E0044505CD29474242508F8E6FFC4540FFD7A
:100C5E00EF540FF50B75097F750AFFE4FCECC39D8D
:100C6E005013E509C313FEE50A13FFEE4480F509A0
:100C7E008F0A0C80E8E50AF56EE509F56DAF6E1288
:100C8E001096AF6D121096D29700C29700AF0B124E
:0F0C9E000A96C2947F327E0012000E0508809DD8
:010CAD002224
:10001E00FFFF03FBFAB6D5EBEFD7DBBA7EFDFBF79E
:10002E007F7F7F03FBF7BFBFBF5F5FEFEFF7FBFD88
:10003E00FFDFECEDFDFD0DEDEDEDECEDEFD7B8FFD7
:10004E00FF7FC3DBDBDBDBDBDB4BD7DFDFDF01FF80
:10005E00FFDFEFECFFFF0FE8EFEFEEEEEDD7B8FFAF
:10006E006F6F6F036F6F6F016F6FEFEFEFFF01FF3A
:10007E00FBFDFEFEFEFDFDFDFBFBF7F7EFDFBF7F99
:10008E00FFFFFFFFFF7F7F7FBFBFDFDFEFEFF7F9E0
:10009E00FEFDFBF6CF30FFFFE0EFEEEEEEFDF38F51
:1000AE00FF7FBFDF6719BF7F0FEFEFEFEF9FE7FB1C
:1000BE00FFFF86B6B5B3B6B7B7B787B6FDFDFEFF81
:1000CE007F7FFF01FFFF07F7EF9F7FFFFDFD01FF22
:1000DE00EFEFEF82AAA9ABAB83AFEFEBE11DBFFF52
:1000EE00DFEFEF01FDFB7F776F5F3F7D7D7D81FF52
:1000FE00FFC38199193804C7FFFFFBF9F8FCFFFF16
:10010E00FFC38199991900C7FFFFDF9F1F3FFFFFB4
:10011E00FFBFD8DFFCFF18DFDCDDDCDDD4CDDDFD7D
:10012E00BFBF03BF07BF01FF07F707F707F7D7EFFB
:10013E00EFEFEFEC05EBEFE4CF2FEEEFEFEFAFDCF1
:10014E00BFDFDF01FDBBBF017777F72FDFAF77FB97
:10015E00FFFFFFF0F7F7F7F4F3FFFFF7F7F8FFFFF6
:10016E00FFFFFF0FFFFFFF3FDFEFEFEFDF3FFFFF71
:10017E00DFDFC4DEBE855DD806DADADDD5CAD7FF8D
:10018E00EFEF83EB01EB83EF83EF01EFEFFF01FF67
:10019E00FF80F7F7F7F7F700F7F7F7F7EFEFDFBFA7
:1001AE00FF03DFDFDFDFDF01DFDFDFDFDFDFDFDFEB
:1001BE00EFEFEFEF03DBDADBDBB7D7EFD7BB7FFF7A
:1001CE00DFDFDFBFB77B017DFF037B7B7B7B037BA9
:1001DE00FDDEEEE87DBDBCEDEDDD1DDDDBDBD6EF3E
:1001EE00EFEFEF41DFBF437B77774177777757EFBD
:1001FE00FFFFFF81FDFDDAEBF7F7EBEDDDBFFFFE55
:10020E00DFD7DBDBDFC11FDBDBD7D7EFCDB579FD6A
:10021E00FFFDFBF7F7EFEFEFEFEFEFF7F7FBFDFF6C
:10022E00FFFFFF016DEFEFEFEFEFEFEFEFC7FFFF18
:10023E00FFFFFFFFFFFFFFFFFFFFFFFFFFE7E7FFF0
:10024E00FFFFFF016DEFEFEFEFEFEFEFEFC7FFFFF8
:10025E00FFBFDFEFEFF7F7F7F7F7F7EFEFDFBFFFD0
:10026E00FFFFFFFFFFFFFFFFFFFFFFFFFFFFFFFF90
:10027E00FFFFFFC3BBBB7F7F7F717BBBBBC7FFFF96
:10028E00FFFFFFFFFFFFFFC3BDE1DDBDBDC0FFFFF1
:10029E00FFFFFFFFFFFFFF01B6B6B6B6B612FFFFB8
:1002AE00FFFFFFFFFFFFFFC3BD81BFBFBDC3FFFF4A
:1002BE00FFFFFFFFFFFFFFFFFFFFFFFFFFFFFFFF40
:1002CE00FFFFFFFFFFFFFFC3BDBDBDBDBDC3FFFFF2
:1002DE00FFFFFFFFFFFFFF18BDDBDBD7EFEFFFFFD9
:1002EE00FFFFFFFFFFFFFFC3BD81BFBFBDC3FFFF0A
:1002FE00FFFFFFFFFFFFFF11CDDFDFDFDF07FFFF98
:10030E00FFFFFFEFEFEFEFEFEFEFFFFFE7E7FFFF8F
:10031E00EFEDDDDCB50DECDDBD05BCFDE51DBCFF77
:10032E00DFDFDFDB57DF03DF8F57DBDFDFDF01FFD1
:10033E00EFEFDEDBBB04EFDFBF02BFFCE31FBFFC52
:10034E00DFDF03DFDF01FD6BAFEF6F01D7BB7DFD9D
:10035E00FDDEEEE87DBDBCEDEDDD1DDDDBDBD6EFBC
:10036E00EFEFEF41DFBF437B77774177777757EF3B
:10037E00FFFFFF81FDFDDAEBF7F7EBEDDDBFFFFED3
:10038E00DFD7DBDBDFC11FDBDBD7D7EFCDB579FDE9
:10039E00FFBFD8DFFCFF18DFDCDDDCDDD4CDDDFDFB
:1003AE00BFBF03BF07BF01FF07F707F707F7D7EF79
:1003BE00EFEFEFEC05EBEFE4CF2FEEEFEFEFAFDC6F
:1003CE00BFDFDF01FDBBBF017777F72FDFAF77FB15
:1003DE00FFFFFFF0F7F7F7F4F3FFFFF7F7F8FFFF74
:1003EE00FFFFFF0FFFFFFF3FDFEFEFEFDF3FFFFFEF
:1003FE00DFDFC4DEBE855DD806DADADDD5CAD7FF0B
:10040E00EFEF83EB01EB83EF83EF01EFEFFF01FFE4
:100D4C0020204D000000000000000000000000000A
:100D5C000000000000000000000000000000000087
:100D6C00000000C101C100016F000171800172011E
:060D7C000173000170008C
:10110900E4F547C200757180757201F56FF573F5E5
:071119007012114C0210F1ED
:100F2200120DE0E547B4011220010FE4F547E57325
:100F3200C4540FF5701207DE0573E573B4900812FE
:100F420010F1E4F573D20130011EE547B40119E452
:100F5200F547E573C4540FF57012088C0573E573F9
:090F6200B49005E4F573C201220C
:100F6B00120DE0E547B4011220010FE4F547E573DC
:100F7B00C4540FF57012093A0573E573B490081257
:100F8B0010F1E4F573D20130011EE547B40119E409
:100F9B00F547E573C4540FF5701209E80573E57353
:090FAB00B49005E4F573C20122C3
:060DE0007B007A00794D52
:060DE6008B088A09890A4E
:100DEC00E4F50BD294AB08AA09A90A850B8275838A
:100DFC000012041EF56D7410250BF582E433F58397
:100E0C0012041EF56EAF6E121096AF6D121096D2C4
:100E1C009700C29700AF0B120A96C294E4FF0FBF63
:0B0E2C0064FC050BE50BC3941040B8FC
:010E37002298
:10114C005389F0438908758C3C758AB0D28CD2A92E
:01115C002270
:1010D900758C3C758AB0C28D056FE56FC394054068
:0810E90006E4F56F75470122D2
:1007DE00E4FF745D2FF8E620E70B744D2FF8E62545
:1007EE00E054FE8009744D2FF8E625E04401FE74B6
:1007FE004D2FF8A606E573540FFEC394085016E568
:10080E0070C39408500FE570C43354E0241EF58273
:10081E00E43400801AEEC39410502AE570C3940895
:10082E005023E570C43354E0242EF582E43400F5F1
:10083E0083E5822FF582E43583F583E493557124A5
:10084E00FF92008002D20020000B745D2FF8E62587
:10085E00E054FE800BD200745D2FF8E625E04401D3
:10086E00FE745D2FF8A6060FEF641060030207E01A
:0D087E00E571C313547FF57170037571802F
:01088B00224A
:10088C00E4FF744D2FF8E620E00B745D2FF8E6C3FF
:10089C0013547F8009745D2FF8E6C3134480FE74F3
:1008AC005D2FF8A606E573540FFEC394085016E5A9
:1008BC0070C39408500FE570C43354E0242EF582B5
:1008CC00E43401801AEEC39410502AE570C39408E6
:1008DC005023E570C43354E0241EF582E43401F552
:1008EC0083E5822FF582E43583F583E493557224F6
:1008FC00FF92008002D20020000B744D2FF8E6C34B
:10090C0013547F800BD200744D2FF8E6C313448030
:10091C00FE744D2FF8A6060FEF6410600302088ECC
:0D092C00E57225E054FEF57270037572014E
:01093900229B
:10093A00E4FF745D2FF8E620E70B744D2FF8E625E7
:10094A00E054FE8009744D2FF8E625E04401FE7458
:10095A004D2FF8A606E573540FFEC394085016E50A
:10096A0070C39408500FE570C43354E0241EF58216
:10097A00E43402801AEEC39410502AE570C3940836
:10098A005023E570C43354E0242EF582E43402F592
:10099A0083E5822FF582E43583F583E49355712448
:1009AA00FF92008002D20020000B745D2FF8E6252A
:1009BA00E054FE800BD200745D2FF8E625E0440176
:1009CA00FE745D2FF8A6060FEF6410600302093C5F
:0D09DA00E571C313547FF5717003757180D2
:0109E70022ED
:1009E800E4FF744D2FF8E620E00B745D2FF8E6C3A2
:1009F80013547F8009745D2FF8E6C3134480FE7496
:100A08005D2FF8A606E573540FFEC394085016E54B
:100A180070C39408500FE570C43354E0242EF58257
:100A2800E43403801AEEC39410502AE570C3940886
:100A38005023E570C43354E0241EF582E43403F5F2
:100A480083E5822FF582E43583F583E49355722498
:100A5800FF92008002D20020000B744D2FF8E6C3ED
:100A680013547F800BD200744D2FF8E6C3134480D3
:100A7800FE744D2FF8A6060FEF641060030209EA12
:0D0A8800E57225E054FEF5727003757201F1
:010A9500223E
:1010F100E4FFE4FEEFC43354E0244D2EF876FF0EF6
:07110100BE20F10FBF01EB5E
:0111080022C4
:030003000205A44F
:1005A400C0E0C0F0C083C082C0D075D000C000C01D
:0D05B40001C002C003C004C005C006C0079E
:1005C100D2027511007F467E0012112030B2030263
:1005D10006BC750F037510E820B21CD3E51094001A
:1005E100E50F940040117F017E00121120E51015E6
:1005F1001070E5150F80E120B2030206B5750F01F9
:100601007510F430B21CD3E5109400E50F9400404E
:10061100117F017E00121120E510151070E5150FF4
:1006210080E1750E00750D00750F0075103C20B24C
:100631001CD3E5109400E50F940040117F017E006A
:10064100121120E510151070E5150F80E1750F01ED
:100651007510F430B229D3E5109400E50F940040F1
:100661001E7F017E001211200511E5101510700288
:10067100150FE511D3941E40DAD2A8C202803C7452
:1006810012250EF8C000E6C313D000F6E511C3949D
:100691000840097412250EF8E64480F6751100052C
:1006A1000DE50DC394084080050EE50EC39404507A
:0B06B10003020626E515F46514C202E2
:1006BC00D007D006D005D004D003D002D001D00092
:0B06CC00D0D0D082D083D0F0D0E0323C
:03001B000210349C
:10103400C0E0C0F0C083C082C0D075D000C000C082
:1010440001C002C003C004C005C006C00712106F6F
:10105400D007D006D005D004D003D002D001D000F0
:0B106400D0D0D082D083D0F0D0E0329A
:03000B00020CAE36
:100CAE00C0E0C0F0C083C082C0D075D000C000C00C
:100CBE0001C002C003C004C005C006C007E51C1475
:100CCE0060161460182402702A1210D9E514B41C90
:100CDE0005751C01801D8018120ED680161210D9B3
:100CEE00E514B41C0B751C017522007523008003DE
:100CFE00751400D007D006D005D004D003D002D092
:0E0D0E0001D000D0D0D082D083D0F0D0E0321F
:100B3E00020FF8E493A3F8E493A34003F68001F2C6
:100B4E0008DFF48029E493A3F85407240CC8C333B8
:100B5E00C4540F4420C8834004F456800146F6DF87
:100B6E00E4800B0102040810204080900D1CE47EEE
:100B7E00019360BCA3FF543F30E509541FFEE4937C
:100B8E00A360010ECF54C025E060A840B8E493A343
:100B9E00FAE493A3F8E493A3C8C582C8CAC583CA6E
:100BAE00F0A3C8C582C8CAC583CADFE9DEE780BE26
:010D82000070
:10041E00BB010CE58229F582E5833AF583E0225093
:10042E0006E92582F8E622BBFE06E92582F8E222DD
:0D043E00E58229F582E5833AF583E49322F7
:10044B00C2D5EC30E709B2D5E4C39DFDE49CFCEECC
:10045B0030E715B2D5E4C39FFFE49EFE120481C3BF
:10046B00E49DFDE49CFC800312048130D507C3E4BA
:06047B009FFFE49EFE223B
:100FB400C2D5E830E70FB2D5E4C39BFBE49AFAE468
:100FC40099F9E498F8EC30E717B2D5120FEA120554
:100FD40012E4C39BFBE49AFAE499F9E498F88003D9
:100FE40012051230D50DE4C39FFFE49EFEE49DFD7F
:040FF400E49CFC225B
:100E8900AC18AD19AE1AAF1B7810EC4D4E4F70046B
:100E99007CA57DA5C3EC13FCED13FDEE13FEEF134A
:100EA900FF5010EC64CCFCED644CFDEE644EFEEF9B
:100EB90064CEFFD8DF8C188D198E1A8F1BEE547FE4
:0D0EC900FE228E188F1974A5F51AF51B2254
:10048100BC000BBE0029EF8DF084FFADF022E4CC5F
:10049100F875F008EF2FFFEE33FEEC33FCEE9DEC28
:1004A100984005FCEE9DFE0FD5F0E9E4CEFD22ED6E
:1004B100F8F5F0EE8420D21CFEADF075F008EF2FB8
:1004C100FFED33FD4007985006D5F0F222C398FDA9
:0504D1000FD5F0EA2246
:1004D60075F008758200EF2FFFEE33FECD33CDCCDD
:1004E60033CCC58233C5829BED9AEC99E582984060
:1004F6000CF582EE9BFEED9AFDEC99FC0FD5F0D63D
:10050600E4CEFBE4CDFAE4CCF9A88222B800C1B966
:100516000059BA002DEC8BF084CFCECDFCE5F0CBA4
:10052600F97818EF2FFFEE33FEED33FDEC33FCEBDD
:1005360033FB10D703994004EB99FB0FD8E5E4F998
:10054600FA227818EF2FFFEE33FEED33FDEC33FC85
:10055600C933C910D7059BE99A4007EC9BFCE99A79
:10056600F90FD8E0E4C9FAE4CCFB2275F010EF2FBE
:10057600FFEE33FEED33FDCC33CCC833C810D707BE
:100586009BEC9AE899400AED9BFDEC9AFCE899F8F9
:0E0596000FD5F0DAE4CDFBE4CCFAE4C8F9228C
:00000001FF
